:100000000C94D3000C94FB000C94FB000C94FB00AC
:100010000C94FB000C94FB000C94FB000C94FB0074
:100020000C94FB000C94FB000C9452040C94C1043F
:100030000C94FB000C94FB000C94FB000C94FB0054
:100040000C94FB000C94FB000C94FB000C94FB0044
:100050000C94FB000C94FB000C94FB000C94080423
:100060000C94FB000C94FB000C94FB000C94FB0024
:100070000C94FB000C94FB000C94FB000C94FB0014
:100080000C94FB000C94FB000C94FB000C94FB0004
:100090000C94FB000C94FB000C94FB000C94FB00F4
:1000A0000C94FB000C94FB000C94FB00000000007F
:1000B0002300260029002C002F00080B000202025A
:1000C00000000904000001020200000524001001E4
:1000D0000524010101042402060524060001070588
:1000E000810310004009040100020A000000070516
:1000F00002024000000705830240000004030904D7
:1001000012010002EF02014041234180000101027F
:10011000030141726475696E6F204C4C430041725B
:100120006475696E6F2059756E0000000000240030
:1001300027002A002D0030000000000025002800C4
:100140002B002E0031000404040404030405020201
:100150000202040302020202060606060606040460
:1001600002020204040408020110408040102040F2
:10017000804080080204018040201002011080109D
:10018000204040200000000200090F00000304018D
:10019000000C000000000000000000000000000053
:1001A00000000000F30611241FBECFEFDAE0DEBF2F
:1001B000CDBF11E0A0E0B1E0E2E2F0E102C00590C5
:1001C0000D92A632B107D9F721E0A6E2B1E001C055
:1001D0001D92AD39B207E1F710E0C3EDD0E004C0E5
:1001E0002197FE010E940908C23DD107C9F70E946C
:1001F00008070C940F080C940000CF93DF9390E055
:10020000FC01EB59FE4F24918A5B9E4FFC018491C7
:100210008823C1F090E0880F991FFC01E65DFE4F36
:10022000C591D491FC01E85CFE4FA591B4919FB7B4
:10023000F8948881E22FE0958E2388838C91E823BF
:10024000EC939FBFDF91CF9108952FB7F89483E08F
:100250008093E9009091E800892F807295FF04C097
:100260009091F20080E4891B2FBF0895FC018091DA
:100270009C01882311F13FB7F89482E08093E90054
:100280002091F200822F90E01816190614F481E0F4
:1002900090E0882339F0289844E640939B014091F0
:1002A000F1004083222339F02091F200211103C094
:1002B0002BE62093E8003FBF08958FEF9FEF08954E
:1002C0008091930181110DC082E080938F0184E0C1
:1002D00080939001109292011092910181E080939D
:1002E00093018FE891E0089581508F3008F047C066
:1002F000E82FF0E0E258FE4F0C9409089B019F01A3
:100300008D0193019701BF01BF01BF01A201A801A7
:10031000AC01B001B601BF01BA01809180008F77B6
:10032000809380000895809180008F7DF9CF809127
:100330008000877FF5CF84B58F7784BD089584B51D
:100340008F7DFBCF809190008F77809390000895F0
:10035000809190008F7DF9CF80919000877FF5CFBD
:100360008091C0008F778093C00008958091C00075
:100370008F7DF9CF8091C200877F8093C20008955E
:10038000CF93DF93282F30E0F901EC57FE4F849193
:10039000F901EB59FE4FD491F901EA5BFE4FC4918C
:1003A000CC2389F081110E947401EC2FF0E0EE0F54
:1003B000FF1FE85CFE4FA591B4918FB7F894EC91C4
:1003C000DE2BDC938FBFDF91CF9108953FB7F89478
:1003D00080918B0190918C01A0918D01B0918E0143
:1003E00026B5A89B05C02F3F19F00196A11DB11D90
:1003F0003FBFBA2FA92F982F8827BC01CD01620FCC
:10040000711D811D911D42E0660F771F881F991F86
:100410004A95D1F708958F929F92AF92BF92CF9253
:10042000DF92EF92FF924B015C010E94E6016B01AB
:100430007C010E94E6016C197D098E099F09683EC6
:10044000734081059105A8F321E0821A9108A10863
:10045000B10888EEC80E83E0D81EE11CF11C81149F
:100460009104A104B10429F7FF90EF90DF90CF90A1
:10047000BF90AF909F908F900895409180015091D0
:10048000810120917E0130917F0142175307B4F41E
:100490009091E8009570E1F39091E80092FD19C009
:1004A0008093F100809180019091810101968F737A
:1004B0009927892B19F48EEF8093E80080918001B1
:1004C000909181010196909381018093800181E058
:1004D000089580E00895EF92FF920F931F93CF93BA
:1004E000DF93F82E192FE62E042F81E0860F880F58
:1004F0000E943D0283E00E943D02CF2DD12FEC0EE1
:10050000FD2EF11CCE15DF05B9F007FF13C0FE016B
:1005100084910E943D02182F80E00E943D028123B9
:1005200021968111EFCFDF91CF911F910F91FF9015
:10053000EF9008958881EDCF81E0F5CFDF92EF92C3
:10054000FF920F931F93CF93DF93D82E8A01EB0175
:100550007B01E40EF51ECE15DF0559F0D7FE12C063
:10056000FE0184910E943D0221968111F4CF0FEF8C
:100570001FEFC801DF91CF911F910F91FF90EF9076
:10058000DF9008958881EECF0F931F93CF93DF9371
:100590001F92CDB7DEB782E0898342E450E06AEB78
:1005A00070E080E80E949E020E946001DC011296C9
:1005B0000D911C910115110589F0D801ED91FC9167
:1005C0000280F381E02DBE016F5F7F4FC801099566
:1005D00097FD04C0F80100851185ECCF89810F904B
:1005E000DF91CF911F910F910895615030F02091CC
:1005F000F100FC0120830196F8CF289884E68093CF
:100600009B0108958F929F92AF92BF92CF92DF92FB
:10061000EF92FF920F931F93CF93DF936C017B01B7
:100620008A0180910B01882309F45CC080919C01B0
:10063000882309F457C08091840180FF05C0809110
:10064000E00082608093E000E801B12C8AEFA82EE0
:1006500093E0892E2AE3922E209711F4BB20D9F142
:100660000E94250181110AC0AA94AA20D9F161E053
:1006700070E080E090E00E940B02EECF8C171D0628
:1006800011F00CF08C2F9FB7F8948092E900209124
:10069000E80025FD02C09FBFDFCF282F30E0C21B3E
:1006A000D30BF701815020F041914093F100FACF34
:1006B000E20EF31EBB2021F09092E800B12CEBCFAC
:1006C0008091E80085FDE7CF9092E800BB24B394C9
:1006D000209709F3F3CF5D9884E680938501101687
:1006E00011063CF081E090E0F6019383828310E0F4
:1006F00000E0C801DF91CF911F910F91FF90EF9023
:10070000DF90CF90BF90AF909F908F900895CF9340
:10071000DF931F92CDB7DEB76983DC01ED91FC91C9
:100720000280F381E02D41E050E0BE016F5F7F4F1A
:1007300009950F90DF91CF91089583E08093E900B0
:100740008091F200882319F08AE38093E8000895ED
:100750000E94250190E00895CF93DF931F92CDB7BB
:10076000DEB7FC018485958597FD08C02FEF3FEF2C
:10077000358724870F90DF91CF910895CE010196A0
:100780000E943601019719F4898190E0F3CF8FEF31
:100790009FEFF0CF0F931F93CF93DF931F92CDB7AF
:1007A000DEB78C01FC018485958597FF0BC0CE01D7
:1007B00001960E943601019771F4898190E0F80159
:1007C00095878487F801848595850F90DF91CF9177
:1007D0001F910F9108958FEF9FEFF1CFFC0184855A
:1007E000958597FD0BC09FB7F89482E08093E90050
:1007F0008091F2009FBF90E0019608959FB7F89412
:1008000082E08093E9008091F2009FBF90E008951C
:100810001F920F920FB60F9211242F933F938F9335
:100820009F93AF93BF938091870190918801A0918E
:100830008901B0918A013091860123E0230F2D3781
:1008400058F50196A11DB11D209386018093870163
:1008500090938801A0938901B0938A0180918B01C4
:1008600090918C01A0918D01B0918E010196A11DF6
:10087000B11D80938B0190938C01A0938D01B09357
:100880008E01BF91AF919F918F913F912F910F90CA
:100890000FBE0F901F90189526E8230F0296A11DFA
:1008A000B11DD2CF1F920F920FB60F9211248F93CA
:1008B0009F938091E1009091E100937F9093E100FC
:1008C00083FF0FC01092E90091E09093EB0010922B
:1008D000EC0092E39093ED0010929C0198E09093CD
:1008E000F00082FF22C093E09093E9009091F20023
:1008F000992319F09AE39093E80090918501992348
:1009000041F090918501915090938501911101C022
:100910005D9A90919B01992341F090919B01915098
:1009200090939B01911101C0289A84FF18C0809177
:10093000E2008E7E81608093E2008091E1008F7EF4
:100940008093E100809184018E7E80618093840198
:100950009F918F910F900FBE0F901F90189580FF61
:10096000F7CF8091E2008E7E80618093E2008091DB
:10097000E1008E7E8093E100809184018E7E816013
:10098000E5CF1F920F920FB60F921124CF92DF92F4
:10099000EF92FF920F931F932F933F934F935F9389
:1009A0006F937F938F939F93AF93BF93EF93FF9337
:1009B000CF93DF93CDB7DEB76C97DEBFCDBF10927C
:1009C000E9008091E80083FF25C068E0CE014596EC
:1009D0000E94F50282EF8093E8008D8987FF39C07D
:1009E0009091E80090FFFCCF982F907609F034C1E9
:1009F0009E894F89588D2F89F88C911131C080388C
:100A000061F5809183018093F1001092F1008EEFE7
:100A10008093E8006C960FB6F894DEBF0FBECDBF92
:100A2000DF91CF91FF91EF91BF91AF919F918F9106
:100A30007F916F915F914F913F912F911F910F91F6
:100A4000FF90EF90DF90CF900F900FBE0F901F9010
:100A500018959EEF9093E800C7CF1092F100D5CF84
:100A6000913059F48111D3CF4130510581F68091F5
:100A700083018D7F80938301CACF933049F4811124
:100A8000C6CF4130510519F6809183018260F2CFC3
:100A9000953041F48091E80080FFFCCF20682093DE
:100AA000E300B5CF963009F0A9C00B8D1C8D22E074
:100AB0001092E9001092810110928001F2122EC072
:100AC00010927F0110927E010E94C4021F8299E061
:100AD0009983FA8291E09E8390EA98879AEF9987AA
:100AE0002091800130918101275F3F4F3C832B8310
:100AF0008D831092E9001092810110928001109371
:100B00007F0100937E0149E050E0BE016F5F7F4F9F
:100B100080E00E949E020E94C40279CF10937F0160
:100B200000937E010E946001DC0112960D911C91E0
:100B30000115110509F451C1D801ED91FC91048012
:100B4000F581E02DBE016B5E7F4FC80109950097CE
:100B500009F03EC1F80100851185EACFF3E0FF12EC
:100B60000EC08F89882309F440C0823061F440E8C8
:100B70006BE08EE191E00E946B02811148CF81E22F
:100B80008093EB0047CF813029F440E86BE082E1AD
:100B900091E0F1CF833099F70E946001DC01129659
:100BA000ED90FC908E010F5F1F4F6801E114F1047E
:100BB00079F0D701ED91FC910680F781E02DB80125
:100BC000C7010995080F111DF701E084F184EECFEC
:100BD000D8011C92F60101900020E9F73197BF017E
:100BE0006C197D0940E0C601C6CF6CEF70E0FB01D7
:100BF000449150E080E80E949E0209CF973009F4AA
:100C0000BECF983021F481E08093F10000CF99307D
:100C100009F0FDCE837009F0B2CFEFE1F1E081E0A1
:100C200031E096E32191222371F08093E900309323
:100C3000EB00DF0111972C912093EC009093ED00D5
:100C40008F5F873079F78EE78093EA001092EA0091
:100C50008F8980939C01DBCE8B8D9C8D1092E90057
:100C6000109281011092800190937F0180937E0108
:100C7000898D811192C08E899D89913A49F4813282
:100C800009F07DCF47E050E064E071E080E0B3CF51
:100C9000913209F074CF833269F48F89988DB0E076
:100CA000A0E08093000190930101A0930201B09312
:100CB0000301ADCE803269F48091E80082FFFCCF61
:100CC00067E084E091E00E94F5028BEF8093E800FA
:100CD0009ECE823209F09BCE8F8980930B01EEEF7E
:100CE000FFE7859194918B3F9C4D51F1E0E0F8E056
:100CF0008091040190910501A0910601B091070136
:100D0000803B9440A105B105F1F480910B0180FD79
:100D10001AC0EE3F8AE0F80789F587E797E79183E5
:100D20008083809160008093820188E19BE00FB610
:100D3000F894A895809360000FBE9093600067CEF2
:100D4000EEEFFAE0D5CF808191818737974709F0A0
:100D50005ECEA8958091600088618093600080914C
:100D6000820180936000EE3F2AE0F20789F08091D3
:100D7000FE0A9091FF0A9183808349CE8081918100
:100D80008737980751F29093FF0A8093FE0AC5CFE8
:100D90001092FF0A1092FE0A3ACE0E946001DC0116
:100DA00012960D911C910115110509F4E8CED80198
:100DB000ED91FC910190F081E02DBE016B5E7F4FC3
:100DC000C8010995811123CEF80100851185EBCF6B
:100DD000181619060CF41BCED2CEF1E0FF12BECECF
:100DE00060E071E004CFEEE2F1E01382128288EE5F
:100DF00093E0A0E0B0E084839583A683B78380E18D
:100E000091E0918380838FEF9FEF9587848708958A
:100E1000789484B5826084BD84B5816084BD85B5D5
:100E2000826085BD85B5816085BD80916E008160E1
:100E300080936E0010928100809181008260809387
:100E40008100809181008160809381008091800089
:100E500081608093800080919100826080939100F6
:100E600080919100816080939100809190008160D9
:100E7000809390008091C10084608093C100809134
:100E8000C10082608093C1008091C1008160809325
:100E9000C1008091C30081608093C3008091C00035
:100EA00082608093C0008091C20081608093C20004
:100EB00080917A00846080937A0080917A008260C9
:100EC00080937A0080917A00816080937A0080918B
:100ED0007A00806880937A0010929C0110928301BE
:100EE000109284018091D70081608093D70080EABE
:100EF0008093D80089B5806189BD89B5826089BD3C
:100F000009B400FEFDCF61E070E080E090E00E9457
:100F10000B028091D8008F7C80618093D8008091F3
:100F2000E000807F8093E0008091E1008E7E8093DE
:100F3000E1008DE08093E200559A209A8FEF9FEFB9
:100F400090933B0180933A0182E00E94FD0083E090
:100F50000E94FD0083E00E94FD0084E00E94FD00ED
:100F600082E00E94C00183E00E94C00183E00E94F1
:100F7000C00184E00E94C00168EC70E080E090E075
:100F80000E940B02C6E8D1E007E611E098E4E92EE2
:100F900091E0F92E20E0C22E20E0D22E30E8A32EE0
:100FA000FE018491F801B490F7019490911022C051
:100FB000A092280148E050E066E271E08EE291E004
:100FC0000E940203109226011092280148E050E08E
:100FD00066E271E08EE291E00E94020368EC70E04C
:100FE00080E090E00E940B02C114D104C9F20E947B
:100FF0000000D6CF81110E947401E92DF0E0EE0FC0
:10100000FF1FE455FF4FA591B4918C91B82281F256
:10101000EBCFEE0FFF1F0590F491E02D0994F894AB
:02102000FFCF00
:10102200FFFFFFFF00E100000000000000000000E1
:1010320087030203A8039D03EE03AC03CA0300C1A6
:06104200808100000000A7
:00000001FF
